:100000000C945D000C9485000C9485000C94850084
:100010000C9485000C9485000C9485000C9485004C
:100020000C9485000C9485000C9485000C9485003C
:100030000C9485000C9485000C9485000C9485002C
:100040000C948A020C9485000C9485000C94850015
:100050000C9485000C9485000C9485000C9485000C
:100060000C9485000C9485000000000024002700FB
:100070002A0000000000250028002B0004040404CE
:100080000404040402020202020203030303030342
:10009000010204081020408001020408102001021F
:1000A00004081020000000080002010000030407FB
:1000B0000000000000000000B10311241FBECFEFBC
:1000C000D8E0DEBFCDBF11E0A0E0B1E0E2EFF7E0A5
:1000D00002C005900D92A831B107D9F721E0A8E13F
:1000E000B1E001C01D92A933B207E1F710E0CDE500
:1000F000D0E004C02197FE010E94F103CC35D10766
:10010000C9F70E94D4020C94F7030C940000AF923C
:10011000BF92CF92DF92EF92FF920F931F93CF93F4
:10012000DF936C017B018B01040F151FEB015E0156
:10013000AE18BF08C017D10759F06991D601ED91EB
:10014000FC910190F081E02DC6010995892B79F78A
:10015000C501DF91CF911F910F91FF90EF90DF903C
:10016000CF90BF90AF90089590E0FC01EC55FF4F09
:100170002491FC01E057FF4F3491FC01E458FF4FFC
:10018000E491EE23C9F0222339F0233001F1A8F4E1
:10019000213019F1223029F1F0E0EE0FFF1FEE5867
:1001A000FF4FA591B4918FB7F894EC91611126C0DF
:1001B00030953E233C938FBF08952730A9F0283017
:1001C000C9F0243049F7809180008F7D03C0809171
:1001D00080008F7780938000DFCF84B58F7784BDD8
:1001E000DBCF84B58F7DFBCF8091B0008F7780937C
:1001F000B000D2CF8091B0008F7DF9CF3E2BDACF07
:10020000CF93DF9390E0FC01E057FF4F2491845897
:100210009F4FFC0184918823D1F090E0880F991FB3
:10022000FC01E859FF4FA591B491FC01EE58FF4F36
:10023000C591D49161110EC09FB7F8948C91E22FB3
:10024000E0958E238C932881E223E8839FBFDF9182
:10025000CF9108958FB7F894EC91E22BEC938FBF78
:10026000F6CF089590E080E00895FC010190002011
:10027000E9F73197AF01481B590BBC0181E291E0CE
:100280000C948700CF93DF93EC0160E08E810E9495
:10029000B40061E08E810E94B40060E08E810E9413
:1002A000B4008BE891E00197F1F7DF91CF910895C9
:1002B000CF92DF92EF92FF920F931F93CF93DF9332
:1002C0006C017C0187E0E80EF11CD0E0C0E0062F55
:1002D00010E0B8010C2E02C0759567950A94E2F7FC
:1002E0006170F70181917F010E94B4002196C430B2
:1002F000D10579F7C601DF91CF911F910F91FF9042
:10030000EF90DF90CF900C944201CF92DF92EF926A
:10031000FF920F931F93CF93DF93EC01F62E642F80
:100320008C810E94B4008D818F3F19F060E00E94A3
:10033000B4000F2D10E08F8584FF25C06E0187E08B
:10034000C80ED11CF12CE12CB8010E2C02C0759501
:1003500067950A94E2F76170F60181916F010E943E
:10036000B400FFEFEF1AFF0A88E0E816F10461F726
:10037000CE01DF91CF911F910F91FF90EF90DF9011
:10038000CF900C944201B80184E0759567958A95E9
:10039000E1F7CE010E9458016F2DCE01DF91CF9180
:1003A0001F910F91FF90EF90DF90CF900C94580128
:1003B00040E0682F81E291E00C948501CF93DF93B8
:1003C000823029F4909130019860909330018093AD
:1003D00034011092350180E48093360180E18093EE
:1003E000370180E58093380161E0809125010E940A
:1003F0000001809126018F3F19F061E00E94000109
:1004000061E0809127010E940001C1E2D1E09E01DC
:10041000215231408091300184FD0BC084E090E096
:1004200021962817390744F461E08E810E9400016B
:10043000EECF88E090E0F4CF8BE39DE00197F1F7F9
:1004400060E0809125010E94B40060E08091270166
:100450000E94B400809126018F3F19F060E00E9455
:10046000B4008091300184FD39C063E081E291E005
:100470000E945801CBE4D6E4CE010197F1F763E086
:1004800081E291E00E9458012197F1F763E081E257
:1004900091E00E94580183E592E00197F1F762E054
:1004A00081E291E00E9458018091300180620E94B7
:1004B000D80184E0809331018CE00E94D80181E072
:1004C0000E94D8018BE39FE10197F1F782E08093CE
:1004D000320186E0DF91CF910C94D80180620E94B6
:1004E000D8018BE496E40197F1F7809130018062A6
:1004F0000E94D80183E592E00197F1F780913001E5
:1005000080620E94D801D0CF41E00E94850181E045
:1005100090E008951F920F920FB60F9211242F931F
:100520003F938F939F93AF93BF9380911D019091C1
:100530001E01A0911F01B091200130911C0123E008
:10054000230F2D3758F50196A11DB11D20931C01D5
:1005500080931D0190931E01A0931F01B093200171
:100560008091180190911901A0911A01B0911B017D
:100570000196A11DB11D8093180190931901A093BC
:100580001A01B0931B01BF91AF919F918F913F9141
:100590002F910F900FBE0F901F90189526E8230FF4
:1005A0000296A11DB11DD2CFCF93DF93CDB7DEB799
:1005B000A1970FB6F894DEBF0FBECDBF789484B577
:1005C000826084BD84B5816084BD85B5826085BD4F
:1005D00085B5816085BD80916E00816080936E00DD
:1005E00010928100809181008260809381008091CF
:1005F0008100816080938100809180008160809380
:1006000080008091B10084608093B1008091B0003F
:1006100081608093B00080917A00846080937A003A
:1006200080917A00826080937A0080917A00816064
:1006300080937A0080917A00806880937A0010928B
:10064000C10082E00E94DE018CE091E00E94350151
:1006500060E083E10E94000161E083E00E9400010C
:1006600085E4382E9AE0892E912CA12CB12C20E023
:10067000C22E20E0D22EE0913401E23008F047C0D3
:10068000E150F0E0EF5DFE4F848980680E94D80160
:1006900030927C0080917A00806480937A0080910F
:1006A0007A0086FDFCCF8091780000917900102FB0
:1006B000082F2801012E000C6608770817FF29C0B3
:1006C00041E06DE281E291E00E948501222733271B
:1006D000A901241935094609570919A28E010F5D90
:1006E0001F4FCA01B901A50194010E94CF03605DAB
:1006F000F80162938F01211531054105510589F7F4
:10070000309719F0CF010E94350161E020C0E1E08F
:10071000B8CFA301920119A2CE0181967C01CA0132
:10072000B901A50194010E94CF03605DF7016293B6
:100730007F01211531054105510589F7309719F0E1
:10074000CF010E94350160E0053F1140F4F283E0E3
:100750000E94B400C114D10409F48DCF0E9400009E
:100760008ACFE1E2F1E01382128284E091E091838A
:1007700080838DE084838FEF85838CE086838BE09C
:1007800087838AE0808789E0818788E08287138673
:10079000148615861686178681E00C94DE01A1E288
:1007A0001A2EAA1BBB1BFD010DC0AA1FBB1FEE1FEB
:1007B000FF1FA217B307E407F50720F0A21BB30B36
:1007C000E40BF50B661F771F881F991F1A9469F7B2
:1007D00060957095809590959B01AC01BD01CF010E
:1007E0000895EE0FFF1F0590F491E02D0994F89401
:0207F000FFCF39
:1007F200000000008402870032013101536F6C61F6
:0808020072204C696768740064
:00000001FF
